{
  "contractName": "MyNFTToken",
  "abi": [
    {
      "inputs": [
        {
          "internalType": "address",
          "name": "token",
          "type": "address"
        }
      ],
      "stateMutability": "nonpayable",
      "type": "constructor"
    },
    {
      "anonymous": false,
      "inputs": [
        {
          "indexed": true,
          "internalType": "address",
          "name": "owner",
          "type": "address"
        },
        {
          "indexed": true,
          "internalType": "address",
          "name": "approved",
          "type": "address"
        },
        {
          "indexed": true,
          "internalType": "uint256",
          "name": "tokenId",
          "type": "uint256"
        }
      ],
      "name": "Approval",
      "type": "event"
    },
    {
      "anonymous": false,
      "inputs": [
        {
          "indexed": true,
          "internalType": "address",
          "name": "owner",
          "type": "address"
        },
        {
          "indexed": true,
          "internalType": "address",
          "name": "operator",
          "type": "address"
        },
        {
          "indexed": false,
          "internalType": "bool",
          "name": "approved",
          "type": "bool"
        }
      ],
      "name": "ApprovalForAll",
      "type": "event"
    },
    {
      "anonymous": false,
      "inputs": [
        {
          "indexed": true,
          "internalType": "address",
          "name": "from",
          "type": "address"
        },
        {
          "indexed": true,
          "internalType": "address",
          "name": "to",
          "type": "address"
        },
        {
          "indexed": true,
          "internalType": "uint256",
          "name": "tokenId",
          "type": "uint256"
        }
      ],
      "name": "Transfer",
      "type": "event"
    },
    {
      "inputs": [
        {
          "internalType": "address",
          "name": "to",
          "type": "address"
        },
        {
          "internalType": "uint256",
          "name": "tokenId",
          "type": "uint256"
        }
      ],
      "name": "approve",
      "outputs": [],
      "stateMutability": "nonpayable",
      "type": "function"
    },
    {
      "inputs": [
        {
          "internalType": "address",
          "name": "owner",
          "type": "address"
        }
      ],
      "name": "balanceOf",
      "outputs": [
        {
          "internalType": "uint256",
          "name": "",
          "type": "uint256"
        }
      ],
      "stateMutability": "view",
      "type": "function"
    },
    {
      "inputs": [
        {
          "internalType": "uint256",
          "name": "tokenId",
          "type": "uint256"
        }
      ],
      "name": "getApproved",
      "outputs": [
        {
          "internalType": "address",
          "name": "",
          "type": "address"
        }
      ],
      "stateMutability": "view",
      "type": "function"
    },
    {
      "inputs": [
        {
          "internalType": "address",
          "name": "owner",
          "type": "address"
        },
        {
          "internalType": "address",
          "name": "operator",
          "type": "address"
        }
      ],
      "name": "isApprovedForAll",
      "outputs": [
        {
          "internalType": "bool",
          "name": "",
          "type": "bool"
        }
      ],
      "stateMutability": "view",
      "type": "function"
    },
    {
      "inputs": [],
      "name": "name",
      "outputs": [
        {
          "internalType": "string",
          "name": "",
          "type": "string"
        }
      ],
      "stateMutability": "view",
      "type": "function"
    },
    {
      "inputs": [
        {
          "internalType": "uint256",
          "name": "tokenId",
          "type": "uint256"
        }
      ],
      "name": "ownerOf",
      "outputs": [
        {
          "internalType": "address",
          "name": "",
          "type": "address"
        }
      ],
      "stateMutability": "view",
      "type": "function"
    },
    {
      "inputs": [
        {
          "internalType": "address",
          "name": "from",
          "type": "address"
        },
        {
          "internalType": "address",
          "name": "to",
          "type": "address"
        },
        {
          "internalType": "uint256",
          "name": "tokenId",
          "type": "uint256"
        }
      ],
      "name": "safeTransferFrom",
      "outputs": [],
      "stateMutability": "nonpayable",
      "type": "function"
    },
    {
      "inputs": [
        {
          "internalType": "address",
          "name": "from",
          "type": "address"
        },
        {
          "internalType": "address",
          "name": "to",
          "type": "address"
        },
        {
          "internalType": "uint256",
          "name": "tokenId",
          "type": "uint256"
        },
        {
          "internalType": "bytes",
          "name": "_data",
          "type": "bytes"
        }
      ],
      "name": "safeTransferFrom",
      "outputs": [],
      "stateMutability": "nonpayable",
      "type": "function"
    },
    {
      "inputs": [
        {
          "internalType": "address",
          "name": "operator",
          "type": "address"
        },
        {
          "internalType": "bool",
          "name": "approved",
          "type": "bool"
        }
      ],
      "name": "setApprovalForAll",
      "outputs": [],
      "stateMutability": "nonpayable",
      "type": "function"
    },
    {
      "inputs": [
        {
          "internalType": "bytes4",
          "name": "interfaceId",
          "type": "bytes4"
        }
      ],
      "name": "supportsInterface",
      "outputs": [
        {
          "internalType": "bool",
          "name": "",
          "type": "bool"
        }
      ],
      "stateMutability": "view",
      "type": "function"
    },
    {
      "inputs": [],
      "name": "symbol",
      "outputs": [
        {
          "internalType": "string",
          "name": "",
          "type": "string"
        }
      ],
      "stateMutability": "view",
      "type": "function"
    },
    {
      "inputs": [
        {
          "internalType": "uint256",
          "name": "tokenId",
          "type": "uint256"
        }
      ],
      "name": "tokenURI",
      "outputs": [
        {
          "internalType": "string",
          "name": "",
          "type": "string"
        }
      ],
      "stateMutability": "view",
      "type": "function"
    },
    {
      "inputs": [
        {
          "internalType": "address",
          "name": "from",
          "type": "address"
        },
        {
          "internalType": "address",
          "name": "to",
          "type": "address"
        },
        {
          "internalType": "uint256",
          "name": "tokenId",
          "type": "uint256"
        }
      ],
      "name": "transferFrom",
      "outputs": [],
      "stateMutability": "nonpayable",
      "type": "function"
    },
    {
      "inputs": [
        {
          "internalType": "address",
          "name": "to",
          "type": "address"
        },
        {
          "internalType": "uint256",
          "name": "tokenId",
          "type": "uint256"
        }
      ],
      "name": "safeMint",
      "outputs": [],
      "stateMutability": "nonpayable",
      "type": "function"
    }
  ],
  "bytecode": "0x608060405260646007553480156200001657600080fd5b5060405162002b4738038062002b4783398181016040528101906200003c91906200023e565b6040518060400160405280600a81526020017f4d794e4654546f6b656e000000000000000000000000000000000000000000008152506040518060400160405280600381526020017f4d4e5400000000000000000000000000000000000000000000000000000000008152508160009080519060200190620000c092919062000124565b508060019080519060200190620000d992919062000124565b50505080600660006101000a81548173ffffffffffffffffffffffffffffffffffffffff021916908373ffffffffffffffffffffffffffffffffffffffff16021790555050620002d4565b82805462000132906200029f565b90600052602060002090601f016020900481019282620001565760008555620001a2565b82601f106200017157805160ff1916838001178555620001a2565b82800160010185558215620001a2579182015b82811115620001a157825182559160200191906001019062000184565b5b509050620001b19190620001b5565b5090565b5b80821115620001d0576000816000905550600101620001b6565b5090565b600080fd5b600073ffffffffffffffffffffffffffffffffffffffff82169050919050565b60006200020682620001d9565b9050919050565b6200021881620001f9565b81146200022457600080fd5b50565b60008151905062000238816200020d565b92915050565b600060208284031215620002575762000256620001d4565b5b6000620002678482850162000227565b91505092915050565b7f4e487b7100000000000000000000000000000000000000000000000000000000600052602260045260246000fd5b60006002820490506001821680620002b857607f821691505b602082108103620002ce57620002cd62000270565b5b50919050565b61286380620002e46000396000f3fe608060405234801561001057600080fd5b50600436106100ea5760003560e01c806370a082311161008c578063a22cb46511610066578063a22cb4651461025b578063b88d4fde14610277578063c87b56dd14610293578063e985e9c5146102c3576100ea565b806370a08231146101f157806395d89b4114610221578063a14481941461023f576100ea565b8063095ea7b3116100c8578063095ea7b31461016d57806323b872dd1461018957806342842e0e146101a55780636352211e146101c1576100ea565b806301ffc9a7146100ef57806306fdde031461011f578063081812fc1461013d575b600080fd5b6101096004803603810190610104919061176f565b6102f3565b60405161011691906117b7565b60405180910390f35b6101276103d5565b604051610134919061186b565b60405180910390f35b610157600480360381019061015291906118c3565b610467565b6040516101649190611931565b60405180910390f35b61018760048036038101906101829190611978565b6104ec565b005b6101a3600480360381019061019e91906119b8565b610603565b005b6101bf60048036038101906101ba91906119b8565b610663565b005b6101db60048036038101906101d691906118c3565b610683565b6040516101e89190611931565b60405180910390f35b61020b60048036038101906102069190611a0b565b610734565b6040516102189190611a47565b60405180910390f35b6102296107eb565b604051610236919061186b565b60405180910390f35b61025960048036038101906102549190611978565b61087d565b005b61027560048036038101906102709190611a8e565b610930565b005b610291600480360381019061028c9190611c03565b610946565b005b6102ad60048036038101906102a891906118c3565b6109a8565b6040516102ba919061186b565b60405180910390f35b6102dd60048036038101906102d89190611c86565b610a4f565b6040516102ea91906117b7565b60405180910390f35b60007f80ac58cd000000000000000000000000000000000000000000000000000000007bffffffffffffffffffffffffffffffffffffffffffffffffffffffff1916827bffffffffffffffffffffffffffffffffffffffffffffffffffffffff191614806103be57507f5b5e139f000000000000000000000000000000000000000000000000000000007bffffffffffffffffffffffffffffffffffffffffffffffffffffffff1916827bffffffffffffffffffffffffffffffffffffffffffffffffffffffff1916145b806103ce57506103cd82610ae3565b5b9050919050565b6060600080546103e490611cf5565b80601f016020809104026020016040519081016040528092919081815260200182805461041090611cf5565b801561045d5780601f106104325761010080835404028352916020019161045d565b820191906000526020600020905b81548152906001019060200180831161044057829003601f168201915b5050505050905090565b600061047282610b4d565b6104b1576040517f08c379a00000000000000000000000000000000000000000000000000000000081526004016104a890611d98565b60405180910390fd5b6004600083815260200190815260200160002060009054906101000a900473ffffffffffffffffffffffffffffffffffffffff169050919050565b60006104f782610683565b90508073ffffffffffffffffffffffffffffffffffffffff168373ffffffffffffffffffffffffffffffffffffffff1603610567576040517f08c379a000000000000000000000000000000000000000000000000000000000815260040161055e90611e2a565b60405180910390fd5b8073ffffffffffffffffffffffffffffffffffffffff16610586610bb9565b73ffffffffffffffffffffffffffffffffffffffff1614806105b557506105b4816105af610bb9565b610a4f565b5b6105f4576040517f08c379a00000000000000000000000000000000000000000000000000000000081526004016105eb90611ebc565b60405180910390fd5b6105fe8383610bc1565b505050565b61061461060e610bb9565b82610c7a565b610653576040517f08c379a000000000000000000000000000000000000000000000000000000000815260040161064a90611f4e565b60405180910390fd5b61065e838383610d58565b505050565b61067e83838360405180602001604052806000815250610946565b505050565b6000806002600084815260200190815260200160002060009054906101000a900473ffffffffffffffffffffffffffffffffffffffff169050600073ffffffffffffffffffffffffffffffffffffffff168173ffffffffffffffffffffffffffffffffffffffff160361072b576040517f08c379a000000000000000000000000000000000000000000000000000000000815260040161072290611fe0565b60405180910390fd5b80915050919050565b60008073ffffffffffffffffffffffffffffffffffffffff168273ffffffffffffffffffffffffffffffffffffffff16036107a4576040517f08c379a000000000000000000000000000000000000000000000000000000000815260040161079b90612072565b60405180910390fd5b600360008373ffffffffffffffffffffffffffffffffffffffff1673ffffffffffffffffffffffffffffffffffffffff168152602001908152602001600020549050919050565b6060600180546107fa90611cf5565b80601f016020809104026020016040519081016040528092919081815260200182805461082690611cf5565b80156108735780601f1061084857610100808354040283529160200191610873565b820191906000526020600020905b81548152906001019060200180831161085657829003601f168201915b5050505050905090565b600660009054906101000a900473ffffffffffffffffffffffffffffffffffffffff1673ffffffffffffffffffffffffffffffffffffffff166323b872dd33306007546040518463ffffffff1660e01b81526004016108de93929190612092565b6020604051808303816000875af11580156108fd573d6000803e3d6000fd5b505050506040513d601f19601f8201168201806040525081019061092191906120de565b5061092c8282610fbe565b5050565b61094261093b610bb9565b8383610fdc565b5050565b610957610951610bb9565b83610c7a565b610996576040517f08c379a000000000000000000000000000000000000000000000000000000000815260040161098d90611f4e565b60405180910390fd5b6109a284848484611148565b50505050565b60606109b382610b4d565b6109f2576040517f08c379a00000000000000000000000000000000000000000000000000000000081526004016109e99061217d565b60405180910390fd5b60006109fc6111a4565b90506000815111610a1c5760405180602001604052806000815250610a47565b80610a26846111bb565b604051602001610a379291906121d9565b6040516020818303038152906040525b915050919050565b6000600560008473ffffffffffffffffffffffffffffffffffffffff1673ffffffffffffffffffffffffffffffffffffffff16815260200190815260200160002060008373ffffffffffffffffffffffffffffffffffffffff1673ffffffffffffffffffffffffffffffffffffffff16815260200190815260200160002060009054906101000a900460ff16905092915050565b60007f01ffc9a7000000000000000000000000000000000000000000000000000000007bffffffffffffffffffffffffffffffffffffffffffffffffffffffff1916827bffffffffffffffffffffffffffffffffffffffffffffffffffffffff1916149050919050565b60008073ffffffffffffffffffffffffffffffffffffffff166002600084815260200190815260200160002060009054906101000a900473ffffffffffffffffffffffffffffffffffffffff1673ffffffffffffffffffffffffffffffffffffffff1614159050919050565b600033905090565b816004600083815260200190815260200160002060006101000a81548173ffffffffffffffffffffffffffffffffffffffff021916908373ffffffffffffffffffffffffffffffffffffffff160217905550808273ffffffffffffffffffffffffffffffffffffffff16610c3483610683565b73ffffffffffffffffffffffffffffffffffffffff167f8c5be1e5ebec7d5bd14f71427d1e84f3dd0314c0f7b2291e5b200ac8c7c3b92560405160405180910390a45050565b6000610c8582610b4d565b610cc4576040517f08c379a0000000000000000000000000000000000000000000000000000000008152600401610cbb9061226f565b60405180910390fd5b6000610ccf83610683565b90508073ffffffffffffffffffffffffffffffffffffffff168473ffffffffffffffffffffffffffffffffffffffff161480610d115750610d108185610a4f565b5b80610d4f57508373ffffffffffffffffffffffffffffffffffffffff16610d3784610467565b73ffffffffffffffffffffffffffffffffffffffff16145b91505092915050565b8273ffffffffffffffffffffffffffffffffffffffff16610d7882610683565b73ffffffffffffffffffffffffffffffffffffffff1614610dce576040517f08c379a0000000000000000000000000000000000000000000000000000000008152600401610dc590612301565b60405180910390fd5b600073ffffffffffffffffffffffffffffffffffffffff168273ffffffffffffffffffffffffffffffffffffffff1603610e3d576040517f08c379a0000000000000000000000000000000000000000000000000000000008152600401610e3490612393565b60405180910390fd5b610e4883838361131b565b610e53600082610bc1565b6001600360008573ffffffffffffffffffffffffffffffffffffffff1673ffffffffffffffffffffffffffffffffffffffff1681526020019081526020016000206000828254610ea391906123e2565b925050819055506001600360008473ffffffffffffffffffffffffffffffffffffffff1673ffffffffffffffffffffffffffffffffffffffff1681526020019081526020016000206000828254610efa9190612416565b92505081905550816002600083815260200190815260200160002060006101000a81548173ffffffffffffffffffffffffffffffffffffffff021916908373ffffffffffffffffffffffffffffffffffffffff160217905550808273ffffffffffffffffffffffffffffffffffffffff168473ffffffffffffffffffffffffffffffffffffffff167fddf252ad1be2c89b69c2b068fc378daa952ba7f163c4a11628f55a4df523b3ef60405160405180910390a4610fb9838383611320565b505050565b610fd8828260405180602001604052806000815250611325565b5050565b8173ffffffffffffffffffffffffffffffffffffffff168373ffffffffffffffffffffffffffffffffffffffff160361104a576040517f08c379a0000000000000000000000000000000000000000000000000000000008152600401611041906124b8565b60405180910390fd5b80600560008573ffffffffffffffffffffffffffffffffffffffff1673ffffffffffffffffffffffffffffffffffffffff16815260200190815260200160002060008473ffffffffffffffffffffffffffffffffffffffff1673ffffffffffffffffffffffffffffffffffffffff16815260200190815260200160002060006101000a81548160ff0219169083151502179055508173ffffffffffffffffffffffffffffffffffffffff168373ffffffffffffffffffffffffffffffffffffffff167f17307eab39ab6107e8899845ad3d59bd9653f200f220920489ca2b5937696c318360405161113b91906117b7565b60405180910390a3505050565b611153848484610d58565b61115f84848484611380565b61119e576040517f08c379a00000000000000000000000000000000000000000000000000000000081526004016111959061254a565b60405180910390fd5b50505050565b606060405180602001604052806000815250905090565b606060008203611202576040518060400160405280600181526020017f30000000000000000000000000000000000000000000000000000000000000008152509050611316565b600082905060005b6000821461123457808061121d9061256a565b915050600a8261122d91906125e1565b915061120a565b60008167ffffffffffffffff8111156112505761124f611ad8565b5b6040519080825280601f01601f1916602001820160405280156112825781602001600182028036833780820191505090505b5090505b6000851461130f5760018261129b91906123e2565b9150600a856112aa9190612612565b60306112b69190612416565b60f81b8183815181106112cc576112cb612643565b5b60200101907effffffffffffffffffffffffffffffffffffffffffffffffffffffffffffff1916908160001a905350600a8561130891906125e1565b9450611286565b8093505050505b919050565b505050565b505050565b61132f8383611507565b61133c6000848484611380565b61137b576040517f08c379a00000000000000000000000000000000000000000000000000000000081526004016113729061254a565b60405180910390fd5b505050565b60006113a18473ffffffffffffffffffffffffffffffffffffffff166116e0565b156114fa578373ffffffffffffffffffffffffffffffffffffffff1663150b7a026113ca610bb9565b8786866040518563ffffffff1660e01b81526004016113ec94939291906126c7565b6020604051808303816000875af192505050801561142857506040513d601f19601f820116820180604052508101906114259190612728565b60015b6114aa573d8060008114611458576040519150601f19603f3d011682016040523d82523d6000602084013e61145d565b606091505b5060008151036114a2576040517f08c379a00000000000000000000000000000000000000000000000000000000081526004016114999061254a565b60405180910390fd5b805181602001fd5b63150b7a0260e01b7bffffffffffffffffffffffffffffffffffffffffffffffffffffffff1916817bffffffffffffffffffffffffffffffffffffffffffffffffffffffff1916149150506114ff565b600190505b949350505050565b600073ffffffffffffffffffffffffffffffffffffffff168273ffffffffffffffffffffffffffffffffffffffff1603611576576040517f08c379a000000000000000000000000000000000000000000000000000000000815260040161156d906127a1565b60405180910390fd5b61157f81610b4d565b156115bf576040517f08c379a00000000000000000000000000000000000000000000000000000000081526004016115b69061280d565b60405180910390fd5b6115cb6000838361131b565b6001600360008473ffffffffffffffffffffffffffffffffffffffff1673ffffffffffffffffffffffffffffffffffffffff168152602001908152602001600020600082825461161b9190612416565b92505081905550816002600083815260200190815260200160002060006101000a81548173ffffffffffffffffffffffffffffffffffffffff021916908373ffffffffffffffffffffffffffffffffffffffff160217905550808273ffffffffffffffffffffffffffffffffffffffff16600073ffffffffffffffffffffffffffffffffffffffff167fddf252ad1be2c89b69c2b068fc378daa952ba7f163c4a11628f55a4df523b3ef60405160405180910390a46116dc60008383611320565b5050565b6000808273ffffffffffffffffffffffffffffffffffffffff163b119050919050565b6000604051905090565b600080fd5b600080fd5b60007fffffffff0000000000000000000000000000000000000000000000000000000082169050919050565b61174c81611717565b811461175757600080fd5b50565b60008135905061176981611743565b92915050565b6000602082840312156117855761178461170d565b5b60006117938482850161175a565b91505092915050565b60008115159050919050565b6117b18161179c565b82525050565b60006020820190506117cc60008301846117a8565b92915050565b600081519050919050565b600082825260208201905092915050565b60005b8381101561180c5780820151818401526020810190506117f1565b8381111561181b576000848401525b50505050565b6000601f19601f8301169050919050565b600061183d826117d2565b61184781856117dd565b93506118578185602086016117ee565b61186081611821565b840191505092915050565b600060208201905081810360008301526118858184611832565b905092915050565b6000819050919050565b6118a08161188d565b81146118ab57600080fd5b50565b6000813590506118bd81611897565b92915050565b6000602082840312156118d9576118d861170d565b5b60006118e7848285016118ae565b91505092915050565b600073ffffffffffffffffffffffffffffffffffffffff82169050919050565b600061191b826118f0565b9050919050565b61192b81611910565b82525050565b60006020820190506119466000830184611922565b92915050565b61195581611910565b811461196057600080fd5b50565b6000813590506119728161194c565b92915050565b6000806040838503121561198f5761198e61170d565b5b600061199d85828601611963565b92505060206119ae858286016118ae565b9150509250929050565b6000806000606084860312156119d1576119d061170d565b5b60006119df86828701611963565b93505060206119f086828701611963565b9250506040611a01868287016118ae565b9150509250925092565b600060208284031215611a2157611a2061170d565b5b6000611a2f84828501611963565b91505092915050565b611a418161188d565b82525050565b6000602082019050611a5c6000830184611a38565b92915050565b611a6b8161179c565b8114611a7657600080fd5b50565b600081359050611a8881611a62565b92915050565b60008060408385031215611aa557611aa461170d565b5b6000611ab385828601611963565b9250506020611ac485828601611a79565b9150509250929050565b600080fd5b600080fd5b7f4e487b7100000000000000000000000000000000000000000000000000000000600052604160045260246000fd5b611b1082611821565b810181811067ffffffffffffffff82111715611b2f57611b2e611ad8565b5b80604052505050565b6000611b42611703565b9050611b4e8282611b07565b919050565b600067ffffffffffffffff821115611b6e57611b6d611ad8565b5b611b7782611821565b9050602081019050919050565b82818337600083830152505050565b6000611ba6611ba184611b53565b611b38565b905082815260208101848484011115611bc257611bc1611ad3565b5b611bcd848285611b84565b509392505050565b600082601f830112611bea57611be9611ace565b5b8135611bfa848260208601611b93565b91505092915050565b60008060008060808587031215611c1d57611c1c61170d565b5b6000611c2b87828801611963565b9450506020611c3c87828801611963565b9350506040611c4d878288016118ae565b925050606085013567ffffffffffffffff811115611c6e57611c6d611712565b5b611c7a87828801611bd5565b91505092959194509250565b60008060408385031215611c9d57611c9c61170d565b5b6000611cab85828601611963565b9250506020611cbc85828601611963565b9150509250929050565b7f4e487b7100000000000000000000000000000000000000000000000000000000600052602260045260246000fd5b60006002820490506001821680611d0d57607f821691505b602082108103611d2057611d1f611cc6565b5b50919050565b7f4552433732313a20617070726f76656420717565727920666f72206e6f6e657860008201527f697374656e7420746f6b656e0000000000000000000000000000000000000000602082015250565b6000611d82602c836117dd565b9150611d8d82611d26565b604082019050919050565b60006020820190508181036000830152611db181611d75565b9050919050565b7f4552433732313a20617070726f76616c20746f2063757272656e74206f776e6560008201527f7200000000000000000000000000000000000000000000000000000000000000602082015250565b6000611e146021836117dd565b9150611e1f82611db8565b604082019050919050565b60006020820190508181036000830152611e4381611e07565b9050919050565b7f4552433732313a20617070726f76652063616c6c6572206973206e6f74206f7760008201527f6e6572206e6f7220617070726f76656420666f7220616c6c0000000000000000602082015250565b6000611ea66038836117dd565b9150611eb182611e4a565b604082019050919050565b60006020820190508181036000830152611ed581611e99565b9050919050565b7f4552433732313a207472616e736665722063616c6c6572206973206e6f74206f60008201527f776e6572206e6f7220617070726f766564000000000000000000000000000000602082015250565b6000611f386031836117dd565b9150611f4382611edc565b604082019050919050565b60006020820190508181036000830152611f6781611f2b565b9050919050565b7f4552433732313a206f776e657220717565727920666f72206e6f6e657869737460008201527f656e7420746f6b656e0000000000000000000000000000000000000000000000602082015250565b6000611fca6029836117dd565b9150611fd582611f6e565b604082019050919050565b60006020820190508181036000830152611ff981611fbd565b9050919050565b7f4552433732313a2062616c616e636520717565727920666f7220746865207a6560008201527f726f206164647265737300000000000000000000000000000000000000000000602082015250565b600061205c602a836117dd565b915061206782612000565b604082019050919050565b6000602082019050818103600083015261208b8161204f565b9050919050565b60006060820190506120a76000830186611922565b6120b46020830185611922565b6120c16040830184611a38565b949350505050565b6000815190506120d881611a62565b92915050565b6000602082840312156120f4576120f361170d565b5b6000612102848285016120c9565b91505092915050565b7f4552433732314d657461646174613a2055524920717565727920666f72206e6f60008201527f6e6578697374656e7420746f6b656e0000000000000000000000000000000000602082015250565b6000612167602f836117dd565b91506121728261210b565b604082019050919050565b600060208201905081810360008301526121968161215a565b9050919050565b600081905092915050565b60006121b3826117d2565b6121bd818561219d565b93506121cd8185602086016117ee565b80840191505092915050565b60006121e582856121a8565b91506121f182846121a8565b91508190509392505050565b7f4552433732313a206f70657261746f7220717565727920666f72206e6f6e657860008201527f697374656e7420746f6b656e0000000000000000000000000000000000000000602082015250565b6000612259602c836117dd565b9150612264826121fd565b604082019050919050565b600060208201905081810360008301526122888161224c565b9050919050565b7f4552433732313a207472616e736665722066726f6d20696e636f72726563742060008201527f6f776e6572000000000000000000000000000000000000000000000000000000602082015250565b60006122eb6025836117dd565b91506122f68261228f565b604082019050919050565b6000602082019050818103600083015261231a816122de565b9050919050565b7f4552433732313a207472616e7366657220746f20746865207a65726f2061646460008201527f7265737300000000000000000000000000000000000000000000000000000000602082015250565b600061237d6024836117dd565b915061238882612321565b604082019050919050565b600060208201905081810360008301526123ac81612370565b9050919050565b7f4e487b7100000000000000000000000000000000000000000000000000000000600052601160045260246000fd5b60006123ed8261188d565b91506123f88361188d565b92508282101561240b5761240a6123b3565b5b828203905092915050565b60006124218261188d565b915061242c8361188d565b9250827fffffffffffffffffffffffffffffffffffffffffffffffffffffffffffffffff03821115612461576124606123b3565b5b828201905092915050565b7f4552433732313a20617070726f766520746f2063616c6c657200000000000000600082015250565b60006124a26019836117dd565b91506124ad8261246c565b602082019050919050565b600060208201905081810360008301526124d181612495565b9050919050565b7f4552433732313a207472616e7366657220746f206e6f6e20455243373231526560008201527f63656976657220696d706c656d656e7465720000000000000000000000000000602082015250565b60006125346032836117dd565b915061253f826124d8565b604082019050919050565b6000602082019050818103600083015261256381612527565b9050919050565b60006125758261188d565b91507fffffffffffffffffffffffffffffffffffffffffffffffffffffffffffffffff82036125a7576125a66123b3565b5b600182019050919050565b7f4e487b7100000000000000000000000000000000000000000000000000000000600052601260045260246000fd5b60006125ec8261188d565b91506125f78361188d565b925082612607576126066125b2565b5b828204905092915050565b600061261d8261188d565b91506126288361188d565b925082612638576126376125b2565b5b828206905092915050565b7f4e487b7100000000000000000000000000000000000000000000000000000000600052603260045260246000fd5b600081519050919050565b600082825260208201905092915050565b600061269982612672565b6126a3818561267d565b93506126b38185602086016117ee565b6126bc81611821565b840191505092915050565b60006080820190506126dc6000830187611922565b6126e96020830186611922565b6126f66040830185611a38565b8181036060830152612708818461268e565b905095945050505050565b60008151905061272281611743565b92915050565b60006020828403121561273e5761273d61170d565b5b600061274c84828501612713565b91505092915050565b7f4552433732313a206d696e7420746f20746865207a65726f2061646472657373600082015250565b600061278b6020836117dd565b915061279682612755565b602082019050919050565b600060208201905081810360008301526127ba8161277e565b9050919050565b7f4552433732313a20746f6b656e20616c7265616479206d696e74656400000000600082015250565b60006127f7601c836117dd565b9150612802826127c1565b602082019050919050565b60006020820190508181036000830152612826816127ea565b905091905056fea264697066735822122039ee415968f67e9a124e4bdb9b274aed564b492442bb07453bc9911e32a3329464736f6c634300080e0033",
  "immutableReferences": {},
  "source": "// SPDX-License-Identifier: MIT\r\npragma solidity ^0.8.14;\r\n\r\nimport \"@openzeppelin/contracts/token/ERC721/ERC721.sol\";\r\nimport \"@openzeppelin/contracts/token/ERC20/ERC20.sol\";\r\n\r\ncontract MyNFTToken is ERC721 {\r\n\r\n    ERC20 private _myToken;\r\n    uint private _price = 100;\r\n\r\n    constructor(address token) ERC721(\"MyNFTToken\", \"MNT\") {\r\n        _myToken = ERC20(token);\r\n    }\r\n\r\n    function safeMint(address to, uint256 tokenId) public {\r\n        _myToken.transferFrom(msg.sender, address(this), _price);\r\n        _safeMint(to, tokenId);\r\n    }\r\n}",
  "sourcePath": "C:\\Users\\itrmi\\OneDrive\\Documentos\\JairoAlonso\\truffle-l\\first-solidity-project\\contracts\\MyNFTToken.sol",
  "compiler": {
    "name": "solc",
    "version": "0.8.14+commit.80d49f37.Emscripten.clang"
  },
  "schemaVersion": "3.4.7",
  "updatedAt": "2022-06-14T15:10:01.349Z",
  "devdoc": {
    "kind": "dev",
    "methods": {
      "approve(address,uint256)": {
        "details": "See {IERC721-approve}."
      },
      "balanceOf(address)": {
        "details": "See {IERC721-balanceOf}."
      },
      "getApproved(uint256)": {
        "details": "See {IERC721-getApproved}."
      },
      "isApprovedForAll(address,address)": {
        "details": "See {IERC721-isApprovedForAll}."
      },
      "name()": {
        "details": "See {IERC721Metadata-name}."
      },
      "ownerOf(uint256)": {
        "details": "See {IERC721-ownerOf}."
      },
      "safeTransferFrom(address,address,uint256)": {
        "details": "See {IERC721-safeTransferFrom}."
      },
      "safeTransferFrom(address,address,uint256,bytes)": {
        "details": "See {IERC721-safeTransferFrom}."
      },
      "setApprovalForAll(address,bool)": {
        "details": "See {IERC721-setApprovalForAll}."
      },
      "supportsInterface(bytes4)": {
        "details": "See {IERC165-supportsInterface}."
      },
      "symbol()": {
        "details": "See {IERC721Metadata-symbol}."
      },
      "tokenURI(uint256)": {
        "details": "See {IERC721Metadata-tokenURI}."
      },
      "transferFrom(address,address,uint256)": {
        "details": "See {IERC721-transferFrom}."
      }
    },
    "version": 1
  },
  "userdoc": {
    "kind": "user",
    "methods": {},
    "version": 1
  }
}