{
  "contractName": "MyNFTToken",
  "abi": [
    {
      "inputs": [
        {
          "internalType": "address",
          "name": "token",
          "type": "address"
        }
      ],
      "stateMutability": "nonpayable",
      "type": "constructor"
    },
    {
      "anonymous": false,
      "inputs": [
        {
          "indexed": true,
          "internalType": "address",
          "name": "owner",
          "type": "address"
        },
        {
          "indexed": true,
          "internalType": "address",
          "name": "approved",
          "type": "address"
        },
        {
          "indexed": true,
          "internalType": "uint256",
          "name": "tokenId",
          "type": "uint256"
        }
      ],
      "name": "Approval",
      "type": "event"
    },
    {
      "anonymous": false,
      "inputs": [
        {
          "indexed": true,
          "internalType": "address",
          "name": "owner",
          "type": "address"
        },
        {
          "indexed": true,
          "internalType": "address",
          "name": "operator",
          "type": "address"
        },
        {
          "indexed": false,
          "internalType": "bool",
          "name": "approved",
          "type": "bool"
        }
      ],
      "name": "ApprovalForAll",
      "type": "event"
    },
    {
      "anonymous": false,
      "inputs": [
        {
          "indexed": true,
          "internalType": "address",
          "name": "from",
          "type": "address"
        },
        {
          "indexed": true,
          "internalType": "address",
          "name": "to",
          "type": "address"
        },
        {
          "indexed": true,
          "internalType": "uint256",
          "name": "tokenId",
          "type": "uint256"
        }
      ],
      "name": "Transfer",
      "type": "event"
    },
    {
      "inputs": [
        {
          "internalType": "address",
          "name": "to",
          "type": "address"
        },
        {
          "internalType": "uint256",
          "name": "tokenId",
          "type": "uint256"
        }
      ],
      "name": "approve",
      "outputs": [],
      "stateMutability": "nonpayable",
      "type": "function"
    },
    {
      "inputs": [
        {
          "internalType": "address",
          "name": "owner",
          "type": "address"
        }
      ],
      "name": "balanceOf",
      "outputs": [
        {
          "internalType": "uint256",
          "name": "",
          "type": "uint256"
        }
      ],
      "stateMutability": "view",
      "type": "function"
    },
    {
      "inputs": [
        {
          "internalType": "uint256",
          "name": "tokenId",
          "type": "uint256"
        }
      ],
      "name": "getApproved",
      "outputs": [
        {
          "internalType": "address",
          "name": "",
          "type": "address"
        }
      ],
      "stateMutability": "view",
      "type": "function"
    },
    {
      "inputs": [
        {
          "internalType": "address",
          "name": "owner",
          "type": "address"
        },
        {
          "internalType": "address",
          "name": "operator",
          "type": "address"
        }
      ],
      "name": "isApprovedForAll",
      "outputs": [
        {
          "internalType": "bool",
          "name": "",
          "type": "bool"
        }
      ],
      "stateMutability": "view",
      "type": "function"
    },
    {
      "inputs": [],
      "name": "name",
      "outputs": [
        {
          "internalType": "string",
          "name": "",
          "type": "string"
        }
      ],
      "stateMutability": "view",
      "type": "function"
    },
    {
      "inputs": [
        {
          "internalType": "uint256",
          "name": "tokenId",
          "type": "uint256"
        }
      ],
      "name": "ownerOf",
      "outputs": [
        {
          "internalType": "address",
          "name": "",
          "type": "address"
        }
      ],
      "stateMutability": "view",
      "type": "function"
    },
    {
      "inputs": [
        {
          "internalType": "address",
          "name": "from",
          "type": "address"
        },
        {
          "internalType": "address",
          "name": "to",
          "type": "address"
        },
        {
          "internalType": "uint256",
          "name": "tokenId",
          "type": "uint256"
        }
      ],
      "name": "safeTransferFrom",
      "outputs": [],
      "stateMutability": "nonpayable",
      "type": "function"
    },
    {
      "inputs": [
        {
          "internalType": "address",
          "name": "from",
          "type": "address"
        },
        {
          "internalType": "address",
          "name": "to",
          "type": "address"
        },
        {
          "internalType": "uint256",
          "name": "tokenId",
          "type": "uint256"
        },
        {
          "internalType": "bytes",
          "name": "_data",
          "type": "bytes"
        }
      ],
      "name": "safeTransferFrom",
      "outputs": [],
      "stateMutability": "nonpayable",
      "type": "function"
    },
    {
      "inputs": [
        {
          "internalType": "address",
          "name": "operator",
          "type": "address"
        },
        {
          "internalType": "bool",
          "name": "approved",
          "type": "bool"
        }
      ],
      "name": "setApprovalForAll",
      "outputs": [],
      "stateMutability": "nonpayable",
      "type": "function"
    },
    {
      "inputs": [
        {
          "internalType": "bytes4",
          "name": "interfaceId",
          "type": "bytes4"
        }
      ],
      "name": "supportsInterface",
      "outputs": [
        {
          "internalType": "bool",
          "name": "",
          "type": "bool"
        }
      ],
      "stateMutability": "view",
      "type": "function"
    },
    {
      "inputs": [],
      "name": "symbol",
      "outputs": [
        {
          "internalType": "string",
          "name": "",
          "type": "string"
        }
      ],
      "stateMutability": "view",
      "type": "function"
    },
    {
      "inputs": [
        {
          "internalType": "uint256",
          "name": "tokenId",
          "type": "uint256"
        }
      ],
      "name": "tokenURI",
      "outputs": [
        {
          "internalType": "string",
          "name": "",
          "type": "string"
        }
      ],
      "stateMutability": "view",
      "type": "function"
    },
    {
      "inputs": [
        {
          "internalType": "address",
          "name": "from",
          "type": "address"
        },
        {
          "internalType": "address",
          "name": "to",
          "type": "address"
        },
        {
          "internalType": "uint256",
          "name": "tokenId",
          "type": "uint256"
        }
      ],
      "name": "transferFrom",
      "outputs": [],
      "stateMutability": "nonpayable",
      "type": "function"
    },
    {
      "inputs": [
        {
          "internalType": "address",
          "name": "to",
          "type": "address"
        },
        {
          "internalType": "uint256",
          "name": "tokenId",
          "type": "uint256"
        }
      ],
      "name": "safeMint",
      "outputs": [],
      "stateMutability": "nonpayable",
      "type": "function"
    },
    {
      "inputs": [
        {
          "internalType": "address",
          "name": "to",
          "type": "address"
        },
        {
          "internalType": "uint256",
          "name": "tokenId",
          "type": "uint256"
        },
        {
          "internalType": "uint256",
          "name": "n",
          "type": "uint256"
        }
      ],
      "name": "mintNTokens",
      "outputs": [],
      "stateMutability": "nonpayable",
      "type": "function"
    }
  ],
  "bytecode": "0x608060405260646007553480156200001657600080fd5b5060405162002cff38038062002cff83398181016040528101906200003c91906200023e565b6040518060400160405280600a81526020017f4d794e4654546f6b656e000000000000000000000000000000000000000000008152506040518060400160405280600381526020017f4d4e5400000000000000000000000000000000000000000000000000000000008152508160009080519060200190620000c092919062000124565b508060019080519060200190620000d992919062000124565b50505080600660006101000a81548173ffffffffffffffffffffffffffffffffffffffff021916908373ffffffffffffffffffffffffffffffffffffffff16021790555050620002d4565b82805462000132906200029f565b90600052602060002090601f016020900481019282620001565760008555620001a2565b82601f106200017157805160ff1916838001178555620001a2565b82800160010185558215620001a2579182015b82811115620001a157825182559160200191906001019062000184565b5b509050620001b19190620001b5565b5090565b5b80821115620001d0576000816000905550600101620001b6565b5090565b600080fd5b600073ffffffffffffffffffffffffffffffffffffffff82169050919050565b60006200020682620001d9565b9050919050565b6200021881620001f9565b81146200022457600080fd5b50565b60008151905062000238816200020d565b92915050565b600060208284031215620002575762000256620001d4565b5b6000620002678482850162000227565b91505092915050565b7f4e487b7100000000000000000000000000000000000000000000000000000000600052602260045260246000fd5b60006002820490506001821680620002b857607f821691505b602082108103620002ce57620002cd62000270565b5b50919050565b612a1b80620002e46000396000f3fe608060405234801561001057600080fd5b50600436106100f55760003560e01c806370a0823111610097578063b88d4fde11610066578063b88d4fde14610282578063c470d6401461029e578063c87b56dd146102ba578063e985e9c5146102ea576100f5565b806370a08231146101fc57806395d89b411461022c578063a14481941461024a578063a22cb46514610266576100f5565b8063095ea7b3116100d3578063095ea7b31461017857806323b872dd1461019457806342842e0e146101b05780636352211e146101cc576100f5565b806301ffc9a7146100fa57806306fdde031461012a578063081812fc14610148575b600080fd5b610114600480360381019061010f919061187a565b61031a565b60405161012191906118c2565b60405180910390f35b6101326103fc565b60405161013f9190611976565b60405180910390f35b610162600480360381019061015d91906119ce565b61048e565b60405161016f9190611a3c565b60405180910390f35b610192600480360381019061018d9190611a83565b610513565b005b6101ae60048036038101906101a99190611ac3565b61062a565b005b6101ca60048036038101906101c59190611ac3565b61068a565b005b6101e660048036038101906101e191906119ce565b6106aa565b6040516101f39190611a3c565b60405180910390f35b61021660048036038101906102119190611b16565b61075b565b6040516102239190611b52565b60405180910390f35b610234610812565b6040516102419190611976565b60405180910390f35b610264600480360381019061025f9190611a83565b6108a4565b005b610280600480360381019061027b9190611b99565b610957565b005b61029c60048036038101906102979190611d0e565b61096d565b005b6102b860048036038101906102b39190611d91565b6109cf565b005b6102d460048036038101906102cf91906119ce565b610ab3565b6040516102e19190611976565b60405180910390f35b61030460048036038101906102ff9190611de4565b610b5a565b60405161031191906118c2565b60405180910390f35b60007f80ac58cd000000000000000000000000000000000000000000000000000000007bffffffffffffffffffffffffffffffffffffffffffffffffffffffff1916827bffffffffffffffffffffffffffffffffffffffffffffffffffffffff191614806103e557507f5b5e139f000000000000000000000000000000000000000000000000000000007bffffffffffffffffffffffffffffffffffffffffffffffffffffffff1916827bffffffffffffffffffffffffffffffffffffffffffffffffffffffff1916145b806103f557506103f482610bee565b5b9050919050565b60606000805461040b90611e53565b80601f016020809104026020016040519081016040528092919081815260200182805461043790611e53565b80156104845780601f1061045957610100808354040283529160200191610484565b820191906000526020600020905b81548152906001019060200180831161046757829003601f168201915b5050505050905090565b600061049982610c58565b6104d8576040517f08c379a00000000000000000000000000000000000000000000000000000000081526004016104cf90611ef6565b60405180910390fd5b6004600083815260200190815260200160002060009054906101000a900473ffffffffffffffffffffffffffffffffffffffff169050919050565b600061051e826106aa565b90508073ffffffffffffffffffffffffffffffffffffffff168373ffffffffffffffffffffffffffffffffffffffff160361058e576040517f08c379a000000000000000000000000000000000000000000000000000000000815260040161058590611f88565b60405180910390fd5b8073ffffffffffffffffffffffffffffffffffffffff166105ad610cc4565b73ffffffffffffffffffffffffffffffffffffffff1614806105dc57506105db816105d6610cc4565b610b5a565b5b61061b576040517f08c379a00000000000000000000000000000000000000000000000000000000081526004016106129061201a565b60405180910390fd5b6106258383610ccc565b505050565b61063b610635610cc4565b82610d85565b61067a576040517f08c379a0000000000000000000000000000000000000000000000000000000008152600401610671906120ac565b60405180910390fd5b610685838383610e63565b505050565b6106a58383836040518060200160405280600081525061096d565b505050565b6000806002600084815260200190815260200160002060009054906101000a900473ffffffffffffffffffffffffffffffffffffffff169050600073ffffffffffffffffffffffffffffffffffffffff168173ffffffffffffffffffffffffffffffffffffffff1603610752576040517f08c379a00000000000000000000000000000000000000000000000000000000081526004016107499061213e565b60405180910390fd5b80915050919050565b60008073ffffffffffffffffffffffffffffffffffffffff168273ffffffffffffffffffffffffffffffffffffffff16036107cb576040517f08c379a00000000000000000000000000000000000000000000000000000000081526004016107c2906121d0565b60405180910390fd5b600360008373ffffffffffffffffffffffffffffffffffffffff1673ffffffffffffffffffffffffffffffffffffffff168152602001908152602001600020549050919050565b60606001805461082190611e53565b80601f016020809104026020016040519081016040528092919081815260200182805461084d90611e53565b801561089a5780601f1061086f5761010080835404028352916020019161089a565b820191906000526020600020905b81548152906001019060200180831161087d57829003601f168201915b5050505050905090565b600660009054906101000a900473ffffffffffffffffffffffffffffffffffffffff1673ffffffffffffffffffffffffffffffffffffffff166323b872dd33306007546040518463ffffffff1660e01b8152600401610905939291906121f0565b6020604051808303816000875af1158015610924573d6000803e3d6000fd5b505050506040513d601f19601f82011682018060405250810190610948919061223c565b5061095382826110c9565b5050565b610969610962610cc4565b83836110e7565b5050565b61097e610978610cc4565b83610d85565b6109bd576040517f08c379a00000000000000000000000000000000000000000000000000000000081526004016109b4906120ac565b60405180910390fd5b6109c984848484611253565b50505050565b6000600754826109df9190612298565b9050600660009054906101000a900473ffffffffffffffffffffffffffffffffffffffff1673ffffffffffffffffffffffffffffffffffffffff166323b872dd3330846040518463ffffffff1660e01b8152600401610a40939291906121f0565b6020604051808303816000875af1158015610a5f573d6000803e3d6000fd5b505050506040513d601f19601f82011682018060405250810190610a83919061223c565b5060005b80831015610aac57610a9985856112af565b8080610aa4906122f2565b915050610a87565b5050505050565b6060610abe82610c58565b610afd576040517f08c379a0000000000000000000000000000000000000000000000000000000008152600401610af4906123ac565b60405180910390fd5b6000610b07611488565b90506000815111610b275760405180602001604052806000815250610b52565b80610b318461149f565b604051602001610b42929190612408565b6040516020818303038152906040525b915050919050565b6000600560008473ffffffffffffffffffffffffffffffffffffffff1673ffffffffffffffffffffffffffffffffffffffff16815260200190815260200160002060008373ffffffffffffffffffffffffffffffffffffffff1673ffffffffffffffffffffffffffffffffffffffff16815260200190815260200160002060009054906101000a900460ff16905092915050565b60007f01ffc9a7000000000000000000000000000000000000000000000000000000007bffffffffffffffffffffffffffffffffffffffffffffffffffffffff1916827bffffffffffffffffffffffffffffffffffffffffffffffffffffffff1916149050919050565b60008073ffffffffffffffffffffffffffffffffffffffff166002600084815260200190815260200160002060009054906101000a900473ffffffffffffffffffffffffffffffffffffffff1673ffffffffffffffffffffffffffffffffffffffff1614159050919050565b600033905090565b816004600083815260200190815260200160002060006101000a81548173ffffffffffffffffffffffffffffffffffffffff021916908373ffffffffffffffffffffffffffffffffffffffff160217905550808273ffffffffffffffffffffffffffffffffffffffff16610d3f836106aa565b73ffffffffffffffffffffffffffffffffffffffff167f8c5be1e5ebec7d5bd14f71427d1e84f3dd0314c0f7b2291e5b200ac8c7c3b92560405160405180910390a45050565b6000610d9082610c58565b610dcf576040517f08c379a0000000000000000000000000000000000000000000000000000000008152600401610dc69061249e565b60405180910390fd5b6000610dda836106aa565b90508073ffffffffffffffffffffffffffffffffffffffff168473ffffffffffffffffffffffffffffffffffffffff161480610e1c5750610e1b8185610b5a565b5b80610e5a57508373ffffffffffffffffffffffffffffffffffffffff16610e428461048e565b73ffffffffffffffffffffffffffffffffffffffff16145b91505092915050565b8273ffffffffffffffffffffffffffffffffffffffff16610e83826106aa565b73ffffffffffffffffffffffffffffffffffffffff1614610ed9576040517f08c379a0000000000000000000000000000000000000000000000000000000008152600401610ed090612530565b60405180910390fd5b600073ffffffffffffffffffffffffffffffffffffffff168273ffffffffffffffffffffffffffffffffffffffff1603610f48576040517f08c379a0000000000000000000000000000000000000000000000000000000008152600401610f3f906125c2565b60405180910390fd5b610f538383836115ff565b610f5e600082610ccc565b6001600360008573ffffffffffffffffffffffffffffffffffffffff1673ffffffffffffffffffffffffffffffffffffffff1681526020019081526020016000206000828254610fae91906125e2565b925050819055506001600360008473ffffffffffffffffffffffffffffffffffffffff1673ffffffffffffffffffffffffffffffffffffffff16815260200190815260200160002060008282546110059190612616565b92505081905550816002600083815260200190815260200160002060006101000a81548173ffffffffffffffffffffffffffffffffffffffff021916908373ffffffffffffffffffffffffffffffffffffffff160217905550808273ffffffffffffffffffffffffffffffffffffffff168473ffffffffffffffffffffffffffffffffffffffff167fddf252ad1be2c89b69c2b068fc378daa952ba7f163c4a11628f55a4df523b3ef60405160405180910390a46110c4838383611604565b505050565b6110e3828260405180602001604052806000815250611609565b5050565b8173ffffffffffffffffffffffffffffffffffffffff168373ffffffffffffffffffffffffffffffffffffffff1603611155576040517f08c379a000000000000000000000000000000000000000000000000000000000815260040161114c906126b8565b60405180910390fd5b80600560008573ffffffffffffffffffffffffffffffffffffffff1673ffffffffffffffffffffffffffffffffffffffff16815260200190815260200160002060008473ffffffffffffffffffffffffffffffffffffffff1673ffffffffffffffffffffffffffffffffffffffff16815260200190815260200160002060006101000a81548160ff0219169083151502179055508173ffffffffffffffffffffffffffffffffffffffff168373ffffffffffffffffffffffffffffffffffffffff167f17307eab39ab6107e8899845ad3d59bd9653f200f220920489ca2b5937696c318360405161124691906118c2565b60405180910390a3505050565b61125e848484610e63565b61126a84848484611664565b6112a9576040517f08c379a00000000000000000000000000000000000000000000000000000000081526004016112a09061274a565b60405180910390fd5b50505050565b600073ffffffffffffffffffffffffffffffffffffffff168273ffffffffffffffffffffffffffffffffffffffff160361131e576040517f08c379a0000000000000000000000000000000000000000000000000000000008152600401611315906127b6565b60405180910390fd5b61132781610c58565b15611367576040517f08c379a000000000000000000000000000000000000000000000000000000000815260040161135e90612822565b60405180910390fd5b611373600083836115ff565b6001600360008473ffffffffffffffffffffffffffffffffffffffff1673ffffffffffffffffffffffffffffffffffffffff16815260200190815260200160002060008282546113c39190612616565b92505081905550816002600083815260200190815260200160002060006101000a81548173ffffffffffffffffffffffffffffffffffffffff021916908373ffffffffffffffffffffffffffffffffffffffff160217905550808273ffffffffffffffffffffffffffffffffffffffff16600073ffffffffffffffffffffffffffffffffffffffff167fddf252ad1be2c89b69c2b068fc378daa952ba7f163c4a11628f55a4df523b3ef60405160405180910390a461148460008383611604565b5050565b606060405180602001604052806000815250905090565b6060600082036114e6576040518060400160405280600181526020017f300000000000000000000000000000000000000000000000000000000000000081525090506115fa565b600082905060005b60008214611518578080611501906122f2565b915050600a826115119190612871565b91506114ee565b60008167ffffffffffffffff81111561153457611533611be3565b5b6040519080825280601f01601f1916602001820160405280156115665781602001600182028036833780820191505090505b5090505b600085146115f35760018261157f91906125e2565b9150600a8561158e91906128a2565b603061159a9190612616565b60f81b8183815181106115b0576115af6128d3565b5b60200101907effffffffffffffffffffffffffffffffffffffffffffffffffffffffffffff1916908160001a905350600a856115ec9190612871565b945061156a565b8093505050505b919050565b505050565b505050565b61161383836112af565b6116206000848484611664565b61165f576040517f08c379a00000000000000000000000000000000000000000000000000000000081526004016116569061274a565b60405180910390fd5b505050565b60006116858473ffffffffffffffffffffffffffffffffffffffff166117eb565b156117de578373ffffffffffffffffffffffffffffffffffffffff1663150b7a026116ae610cc4565b8786866040518563ffffffff1660e01b81526004016116d09493929190612957565b6020604051808303816000875af192505050801561170c57506040513d601f19601f8201168201806040525081019061170991906129b8565b60015b61178e573d806000811461173c576040519150601f19603f3d011682016040523d82523d6000602084013e611741565b606091505b506000815103611786576040517f08c379a000000000000000000000000000000000000000000000000000000000815260040161177d9061274a565b60405180910390fd5b805181602001fd5b63150b7a0260e01b7bffffffffffffffffffffffffffffffffffffffffffffffffffffffff1916817bffffffffffffffffffffffffffffffffffffffffffffffffffffffff1916149150506117e3565b600190505b949350505050565b6000808273ffffffffffffffffffffffffffffffffffffffff163b119050919050565b6000604051905090565b600080fd5b600080fd5b60007fffffffff0000000000000000000000000000000000000000000000000000000082169050919050565b61185781611822565b811461186257600080fd5b50565b6000813590506118748161184e565b92915050565b6000602082840312156118905761188f611818565b5b600061189e84828501611865565b91505092915050565b60008115159050919050565b6118bc816118a7565b82525050565b60006020820190506118d760008301846118b3565b92915050565b600081519050919050565b600082825260208201905092915050565b60005b838110156119175780820151818401526020810190506118fc565b83811115611926576000848401525b50505050565b6000601f19601f8301169050919050565b6000611948826118dd565b61195281856118e8565b93506119628185602086016118f9565b61196b8161192c565b840191505092915050565b60006020820190508181036000830152611990818461193d565b905092915050565b6000819050919050565b6119ab81611998565b81146119b657600080fd5b50565b6000813590506119c8816119a2565b92915050565b6000602082840312156119e4576119e3611818565b5b60006119f2848285016119b9565b91505092915050565b600073ffffffffffffffffffffffffffffffffffffffff82169050919050565b6000611a26826119fb565b9050919050565b611a3681611a1b565b82525050565b6000602082019050611a516000830184611a2d565b92915050565b611a6081611a1b565b8114611a6b57600080fd5b50565b600081359050611a7d81611a57565b92915050565b60008060408385031215611a9a57611a99611818565b5b6000611aa885828601611a6e565b9250506020611ab9858286016119b9565b9150509250929050565b600080600060608486031215611adc57611adb611818565b5b6000611aea86828701611a6e565b9350506020611afb86828701611a6e565b9250506040611b0c868287016119b9565b9150509250925092565b600060208284031215611b2c57611b2b611818565b5b6000611b3a84828501611a6e565b91505092915050565b611b4c81611998565b82525050565b6000602082019050611b676000830184611b43565b92915050565b611b76816118a7565b8114611b8157600080fd5b50565b600081359050611b9381611b6d565b92915050565b60008060408385031215611bb057611baf611818565b5b6000611bbe85828601611a6e565b9250506020611bcf85828601611b84565b9150509250929050565b600080fd5b600080fd5b7f4e487b7100000000000000000000000000000000000000000000000000000000600052604160045260246000fd5b611c1b8261192c565b810181811067ffffffffffffffff82111715611c3a57611c39611be3565b5b80604052505050565b6000611c4d61180e565b9050611c598282611c12565b919050565b600067ffffffffffffffff821115611c7957611c78611be3565b5b611c828261192c565b9050602081019050919050565b82818337600083830152505050565b6000611cb1611cac84611c5e565b611c43565b905082815260208101848484011115611ccd57611ccc611bde565b5b611cd8848285611c8f565b509392505050565b600082601f830112611cf557611cf4611bd9565b5b8135611d05848260208601611c9e565b91505092915050565b60008060008060808587031215611d2857611d27611818565b5b6000611d3687828801611a6e565b9450506020611d4787828801611a6e565b9350506040611d58878288016119b9565b925050606085013567ffffffffffffffff811115611d7957611d7861181d565b5b611d8587828801611ce0565b91505092959194509250565b600080600060608486031215611daa57611da9611818565b5b6000611db886828701611a6e565b9350506020611dc9868287016119b9565b9250506040611dda868287016119b9565b9150509250925092565b60008060408385031215611dfb57611dfa611818565b5b6000611e0985828601611a6e565b9250506020611e1a85828601611a6e565b9150509250929050565b7f4e487b7100000000000000000000000000000000000000000000000000000000600052602260045260246000fd5b60006002820490506001821680611e6b57607f821691505b602082108103611e7e57611e7d611e24565b5b50919050565b7f4552433732313a20617070726f76656420717565727920666f72206e6f6e657860008201527f697374656e7420746f6b656e0000000000000000000000000000000000000000602082015250565b6000611ee0602c836118e8565b9150611eeb82611e84565b604082019050919050565b60006020820190508181036000830152611f0f81611ed3565b9050919050565b7f4552433732313a20617070726f76616c20746f2063757272656e74206f776e6560008201527f7200000000000000000000000000000000000000000000000000000000000000602082015250565b6000611f726021836118e8565b9150611f7d82611f16565b604082019050919050565b60006020820190508181036000830152611fa181611f65565b9050919050565b7f4552433732313a20617070726f76652063616c6c6572206973206e6f74206f7760008201527f6e6572206e6f7220617070726f76656420666f7220616c6c0000000000000000602082015250565b60006120046038836118e8565b915061200f82611fa8565b604082019050919050565b6000602082019050818103600083015261203381611ff7565b9050919050565b7f4552433732313a207472616e736665722063616c6c6572206973206e6f74206f60008201527f776e6572206e6f7220617070726f766564000000000000000000000000000000602082015250565b60006120966031836118e8565b91506120a18261203a565b604082019050919050565b600060208201905081810360008301526120c581612089565b9050919050565b7f4552433732313a206f776e657220717565727920666f72206e6f6e657869737460008201527f656e7420746f6b656e0000000000000000000000000000000000000000000000602082015250565b60006121286029836118e8565b9150612133826120cc565b604082019050919050565b600060208201905081810360008301526121578161211b565b9050919050565b7f4552433732313a2062616c616e636520717565727920666f7220746865207a6560008201527f726f206164647265737300000000000000000000000000000000000000000000602082015250565b60006121ba602a836118e8565b91506121c58261215e565b604082019050919050565b600060208201905081810360008301526121e9816121ad565b9050919050565b60006060820190506122056000830186611a2d565b6122126020830185611a2d565b61221f6040830184611b43565b949350505050565b60008151905061223681611b6d565b92915050565b60006020828403121561225257612251611818565b5b600061226084828501612227565b91505092915050565b7f4e487b7100000000000000000000000000000000000000000000000000000000600052601160045260246000fd5b60006122a382611998565b91506122ae83611998565b9250817fffffffffffffffffffffffffffffffffffffffffffffffffffffffffffffffff04831182151516156122e7576122e6612269565b5b828202905092915050565b60006122fd82611998565b91507fffffffffffffffffffffffffffffffffffffffffffffffffffffffffffffffff820361232f5761232e612269565b5b600182019050919050565b7f4552433732314d657461646174613a2055524920717565727920666f72206e6f60008201527f6e6578697374656e7420746f6b656e0000000000000000000000000000000000602082015250565b6000612396602f836118e8565b91506123a18261233a565b604082019050919050565b600060208201905081810360008301526123c581612389565b9050919050565b600081905092915050565b60006123e2826118dd565b6123ec81856123cc565b93506123fc8185602086016118f9565b80840191505092915050565b600061241482856123d7565b915061242082846123d7565b91508190509392505050565b7f4552433732313a206f70657261746f7220717565727920666f72206e6f6e657860008201527f697374656e7420746f6b656e0000000000000000000000000000000000000000602082015250565b6000612488602c836118e8565b91506124938261242c565b604082019050919050565b600060208201905081810360008301526124b78161247b565b9050919050565b7f4552433732313a207472616e736665722066726f6d20696e636f72726563742060008201527f6f776e6572000000000000000000000000000000000000000000000000000000602082015250565b600061251a6025836118e8565b9150612525826124be565b604082019050919050565b600060208201905081810360008301526125498161250d565b9050919050565b7f4552433732313a207472616e7366657220746f20746865207a65726f2061646460008201527f7265737300000000000000000000000000000000000000000000000000000000602082015250565b60006125ac6024836118e8565b91506125b782612550565b604082019050919050565b600060208201905081810360008301526125db8161259f565b9050919050565b60006125ed82611998565b91506125f883611998565b92508282101561260b5761260a612269565b5b828203905092915050565b600061262182611998565b915061262c83611998565b9250827fffffffffffffffffffffffffffffffffffffffffffffffffffffffffffffffff0382111561266157612660612269565b5b828201905092915050565b7f4552433732313a20617070726f766520746f2063616c6c657200000000000000600082015250565b60006126a26019836118e8565b91506126ad8261266c565b602082019050919050565b600060208201905081810360008301526126d181612695565b9050919050565b7f4552433732313a207472616e7366657220746f206e6f6e20455243373231526560008201527f63656976657220696d706c656d656e7465720000000000000000000000000000602082015250565b60006127346032836118e8565b915061273f826126d8565b604082019050919050565b6000602082019050818103600083015261276381612727565b9050919050565b7f4552433732313a206d696e7420746f20746865207a65726f2061646472657373600082015250565b60006127a06020836118e8565b91506127ab8261276a565b602082019050919050565b600060208201905081810360008301526127cf81612793565b9050919050565b7f4552433732313a20746f6b656e20616c7265616479206d696e74656400000000600082015250565b600061280c601c836118e8565b9150612817826127d6565b602082019050919050565b6000602082019050818103600083015261283b816127ff565b9050919050565b7f4e487b7100000000000000000000000000000000000000000000000000000000600052601260045260246000fd5b600061287c82611998565b915061288783611998565b92508261289757612896612842565b5b828204905092915050565b60006128ad82611998565b91506128b883611998565b9250826128c8576128c7612842565b5b828206905092915050565b7f4e487b7100000000000000000000000000000000000000000000000000000000600052603260045260246000fd5b600081519050919050565b600082825260208201905092915050565b600061292982612902565b612933818561290d565b93506129438185602086016118f9565b61294c8161192c565b840191505092915050565b600060808201905061296c6000830187611a2d565b6129796020830186611a2d565b6129866040830185611b43565b8181036060830152612998818461291e565b905095945050505050565b6000815190506129b28161184e565b92915050565b6000602082840312156129ce576129cd611818565b5b60006129dc848285016129a3565b9150509291505056fea26469706673582212206118129430e654904e17a06071b888f96d4ba79f4911ca77ccd7366a03367d1b64736f6c634300080e0033",
  "immutableReferences": {},
  "source": "// SPDX-License-Identifier: MIT\r\npragma solidity ^0.8.14;\r\n\r\nimport \"@openzeppelin/contracts/token/ERC721/ERC721.sol\";\r\nimport \"@openzeppelin/contracts/token/ERC20/ERC20.sol\";\r\n\r\ncontract MyNFTToken is ERC721 {\r\n\r\n    ERC20 private _myToken;\r\n    uint private _price = 100;\r\n\r\n    constructor(address token) ERC721(\"MyNFTToken\", \"MNT\") {\r\n        _myToken = ERC20(token);\r\n    }\r\n\r\n    function safeMint(address to, uint256 tokenId) public {\r\n        _myToken.transferFrom(msg.sender, address(this), _price);\r\n        _safeMint(to, tokenId);\r\n    }\r\n\r\n    function mintNTokens(address to, uint tokenId, uint n) public {\r\n        uint totalPrice = n * _price;\r\n        _myToken.transferFrom(msg.sender, address(this), totalPrice);\r\n        for (uint256 index = 0; n < index; index++) {\r\n            _mint(to, tokenId);\r\n        }\r\n    }\r\n}",
  "sourcePath": "C:\\Users\\itrmi\\OneDrive\\Documentos\\JairoAlonso\\truffle-l\\first-solidity-project\\contracts\\MyNFTToken.sol",
  "compiler": {
    "name": "solc",
    "version": "0.8.14+commit.80d49f37.Emscripten.clang"
  },
  "schemaVersion": "3.4.7",
  "updatedAt": "2022-06-22T15:43:19.120Z",
  "devdoc": {
    "kind": "dev",
    "methods": {
      "approve(address,uint256)": {
        "details": "See {IERC721-approve}."
      },
      "balanceOf(address)": {
        "details": "See {IERC721-balanceOf}."
      },
      "getApproved(uint256)": {
        "details": "See {IERC721-getApproved}."
      },
      "isApprovedForAll(address,address)": {
        "details": "See {IERC721-isApprovedForAll}."
      },
      "name()": {
        "details": "See {IERC721Metadata-name}."
      },
      "ownerOf(uint256)": {
        "details": "See {IERC721-ownerOf}."
      },
      "safeTransferFrom(address,address,uint256)": {
        "details": "See {IERC721-safeTransferFrom}."
      },
      "safeTransferFrom(address,address,uint256,bytes)": {
        "details": "See {IERC721-safeTransferFrom}."
      },
      "setApprovalForAll(address,bool)": {
        "details": "See {IERC721-setApprovalForAll}."
      },
      "supportsInterface(bytes4)": {
        "details": "See {IERC165-supportsInterface}."
      },
      "symbol()": {
        "details": "See {IERC721Metadata-symbol}."
      },
      "tokenURI(uint256)": {
        "details": "See {IERC721Metadata-tokenURI}."
      },
      "transferFrom(address,address,uint256)": {
        "details": "See {IERC721-transferFrom}."
      }
    },
    "version": 1
  },
  "userdoc": {
    "kind": "user",
    "methods": {},
    "version": 1
  }
}