{
  "contractName": "StakingRewards",
  "abi": [
    {
      "inputs": [
        {
          "internalType": "address",
          "name": "_stakingToken",
          "type": "address"
        }
      ],
      "stateMutability": "nonpayable",
      "type": "constructor"
    },
    {
      "inputs": [],
      "name": "lastUpdateTime",
      "outputs": [
        {
          "internalType": "uint256",
          "name": "",
          "type": "uint256"
        }
      ],
      "stateMutability": "view",
      "type": "function"
    },
    {
      "inputs": [],
      "name": "rewardPerTokenStored",
      "outputs": [
        {
          "internalType": "uint256",
          "name": "",
          "type": "uint256"
        }
      ],
      "stateMutability": "view",
      "type": "function"
    },
    {
      "inputs": [],
      "name": "rewardRate",
      "outputs": [
        {
          "internalType": "uint256",
          "name": "",
          "type": "uint256"
        }
      ],
      "stateMutability": "view",
      "type": "function"
    },
    {
      "inputs": [
        {
          "internalType": "address",
          "name": "",
          "type": "address"
        }
      ],
      "name": "rewards",
      "outputs": [
        {
          "internalType": "uint256",
          "name": "",
          "type": "uint256"
        }
      ],
      "stateMutability": "view",
      "type": "function"
    },
    {
      "inputs": [],
      "name": "stakingToken",
      "outputs": [
        {
          "internalType": "contract ERC20",
          "name": "",
          "type": "address"
        }
      ],
      "stateMutability": "view",
      "type": "function"
    },
    {
      "inputs": [
        {
          "internalType": "address",
          "name": "",
          "type": "address"
        }
      ],
      "name": "userRewardPerTokenPaid",
      "outputs": [
        {
          "internalType": "uint256",
          "name": "",
          "type": "uint256"
        }
      ],
      "stateMutability": "view",
      "type": "function"
    },
    {
      "inputs": [],
      "name": "rewardPerToken",
      "outputs": [
        {
          "internalType": "uint256",
          "name": "",
          "type": "uint256"
        }
      ],
      "stateMutability": "view",
      "type": "function"
    },
    {
      "inputs": [
        {
          "internalType": "address",
          "name": "account",
          "type": "address"
        }
      ],
      "name": "earned",
      "outputs": [
        {
          "internalType": "uint256",
          "name": "",
          "type": "uint256"
        }
      ],
      "stateMutability": "view",
      "type": "function"
    },
    {
      "inputs": [
        {
          "internalType": "uint256",
          "name": "_amount",
          "type": "uint256"
        }
      ],
      "name": "stake",
      "outputs": [],
      "stateMutability": "nonpayable",
      "type": "function"
    },
    {
      "inputs": [
        {
          "internalType": "uint256",
          "name": "_amount",
          "type": "uint256"
        }
      ],
      "name": "withdraw",
      "outputs": [],
      "stateMutability": "nonpayable",
      "type": "function"
    },
    {
      "inputs": [],
      "name": "getReward",
      "outputs": [],
      "stateMutability": "nonpayable",
      "type": "function"
    }
  ],
  "bytecode": "0x6080604052606460015534801561001557600080fd5b50604051610e5a380380610e5a833981810160405281019061003791906100e0565b806000806101000a81548173ffffffffffffffffffffffffffffffffffffffff021916908373ffffffffffffffffffffffffffffffffffffffff1602179055505061010d565b600080fd5b600073ffffffffffffffffffffffffffffffffffffffff82169050919050565b60006100ad82610082565b9050919050565b6100bd816100a2565b81146100c857600080fd5b50565b6000815190506100da816100b4565b92915050565b6000602082840312156100f6576100f561007d565b5b6000610104848285016100cb565b91505092915050565b610d3e8061011c6000396000f3fe608060405234801561001057600080fd5b50600436106100a85760003560e01c80637b0a47ee116100715780637b0a47ee146101515780638b8763471461016f578063a694fc3a1461019f578063c8f33c91146101bb578063cd3daf9d146101d9578063df136d65146101f7576100a8565b80628cc262146100ad5780630700037d146100dd5780632e1a7d4d1461010d5780633d18b9121461012957806372f702f314610133575b600080fd5b6100c760048036038101906100c2919061098d565b610215565b6040516100d491906109d3565b60405180910390f35b6100f760048036038101906100f2919061098d565b610317565b60405161010491906109d3565b60405180910390f35b61012760048036038101906101229190610a1a565b61032f565b005b6101316104e9565b005b61013b6106bd565b6040516101489190610aa6565b60405180910390f35b6101596106e1565b60405161016691906109d3565b60405180910390f35b6101896004803603810190610184919061098d565b6106e7565b60405161019691906109d3565b60405180910390f35b6101b960048036038101906101b49190610a1a565b6106ff565b005b6101c36108bb565b6040516101d091906109d3565b60405180910390f35b6101e16108c1565b6040516101ee91906109d3565b60405180910390f35b6101ff610924565b60405161020c91906109d3565b60405180910390f35b6000600560008373ffffffffffffffffffffffffffffffffffffffff1673ffffffffffffffffffffffffffffffffffffffff16815260200190815260200160002054670de0b6b3a7640000600460008573ffffffffffffffffffffffffffffffffffffffff1673ffffffffffffffffffffffffffffffffffffffff168152602001908152602001600020546102a86108c1565b6102b29190610af0565b600760008673ffffffffffffffffffffffffffffffffffffffff1673ffffffffffffffffffffffffffffffffffffffff168152602001908152602001600020546102fc9190610b24565b6103069190610bad565b6103109190610bde565b9050919050565b60056020528060005260406000206000915090505481565b336103386108c1565b6003819055504260028190555061034e81610215565b600560008373ffffffffffffffffffffffffffffffffffffffff1673ffffffffffffffffffffffffffffffffffffffff16815260200190815260200160002081905550600354600460008373ffffffffffffffffffffffffffffffffffffffff1673ffffffffffffffffffffffffffffffffffffffff1681526020019081526020016000208190555081600660008282546103e99190610af0565b9250508190555081600760003373ffffffffffffffffffffffffffffffffffffffff1673ffffffffffffffffffffffffffffffffffffffff168152602001908152602001600020600082825461043f9190610af0565b9250508190555060008054906101000a900473ffffffffffffffffffffffffffffffffffffffff1673ffffffffffffffffffffffffffffffffffffffff1663a9059cbb33846040518363ffffffff1660e01b81526004016104a1929190610c43565b6020604051808303816000875af11580156104c0573d6000803e3d6000fd5b505050506040513d601f19601f820116820180604052508101906104e49190610ca4565b505050565b336104f26108c1565b6003819055504260028190555061050881610215565b600560008373ffffffffffffffffffffffffffffffffffffffff1673ffffffffffffffffffffffffffffffffffffffff16815260200190815260200160002081905550600354600460008373ffffffffffffffffffffffffffffffffffffffff1673ffffffffffffffffffffffffffffffffffffffff168152602001908152602001600020819055506000600560003373ffffffffffffffffffffffffffffffffffffffff1673ffffffffffffffffffffffffffffffffffffffff1681526020019081526020016000205490506000600560003373ffffffffffffffffffffffffffffffffffffffff1673ffffffffffffffffffffffffffffffffffffffff1681526020019081526020016000208190555060008054906101000a900473ffffffffffffffffffffffffffffffffffffffff1673ffffffffffffffffffffffffffffffffffffffff1663a9059cbb33836040518363ffffffff1660e01b8152600401610675929190610c43565b6020604051808303816000875af1158015610694573d6000803e3d6000fd5b505050506040513d601f19601f820116820180604052508101906106b89190610ca4565b505050565b60008054906101000a900473ffffffffffffffffffffffffffffffffffffffff1681565b60015481565b60046020528060005260406000206000915090505481565b336107086108c1565b6003819055504260028190555061071e81610215565b600560008373ffffffffffffffffffffffffffffffffffffffff1673ffffffffffffffffffffffffffffffffffffffff16815260200190815260200160002081905550600354600460008373ffffffffffffffffffffffffffffffffffffffff1673ffffffffffffffffffffffffffffffffffffffff1681526020019081526020016000208190555081600660008282546107b99190610bde565b9250508190555081600760003373ffffffffffffffffffffffffffffffffffffffff1673ffffffffffffffffffffffffffffffffffffffff168152602001908152602001600020600082825461080f9190610bde565b9250508190555060008054906101000a900473ffffffffffffffffffffffffffffffffffffffff1673ffffffffffffffffffffffffffffffffffffffff166323b872dd3330856040518463ffffffff1660e01b815260040161087393929190610cd1565b6020604051808303816000875af1158015610892573d6000803e3d6000fd5b505050506040513d601f19601f820116820180604052508101906108b69190610ca4565b505050565b60025481565b600080600654036108d6576003549050610921565b600654670de0b6b3a7640000600154600254426108f39190610af0565b6108fd9190610b24565b6109079190610b24565b6109119190610bad565b60035461091e9190610bde565b90505b90565b60035481565b600080fd5b600073ffffffffffffffffffffffffffffffffffffffff82169050919050565b600061095a8261092f565b9050919050565b61096a8161094f565b811461097557600080fd5b50565b60008135905061098781610961565b92915050565b6000602082840312156109a3576109a261092a565b5b60006109b184828501610978565b91505092915050565b6000819050919050565b6109cd816109ba565b82525050565b60006020820190506109e860008301846109c4565b92915050565b6109f7816109ba565b8114610a0257600080fd5b50565b600081359050610a14816109ee565b92915050565b600060208284031215610a3057610a2f61092a565b5b6000610a3e84828501610a05565b91505092915050565b6000819050919050565b6000610a6c610a67610a628461092f565b610a47565b61092f565b9050919050565b6000610a7e82610a51565b9050919050565b6000610a9082610a73565b9050919050565b610aa081610a85565b82525050565b6000602082019050610abb6000830184610a97565b92915050565b7f4e487b7100000000000000000000000000000000000000000000000000000000600052601160045260246000fd5b6000610afb826109ba565b9150610b06836109ba565b925082821015610b1957610b18610ac1565b5b828203905092915050565b6000610b2f826109ba565b9150610b3a836109ba565b9250817fffffffffffffffffffffffffffffffffffffffffffffffffffffffffffffffff0483118215151615610b7357610b72610ac1565b5b828202905092915050565b7f4e487b7100000000000000000000000000000000000000000000000000000000600052601260045260246000fd5b6000610bb8826109ba565b9150610bc3836109ba565b925082610bd357610bd2610b7e565b5b828204905092915050565b6000610be9826109ba565b9150610bf4836109ba565b9250827fffffffffffffffffffffffffffffffffffffffffffffffffffffffffffffffff03821115610c2957610c28610ac1565b5b828201905092915050565b610c3d8161094f565b82525050565b6000604082019050610c586000830185610c34565b610c6560208301846109c4565b9392505050565b60008115159050919050565b610c8181610c6c565b8114610c8c57600080fd5b50565b600081519050610c9e81610c78565b92915050565b600060208284031215610cba57610cb961092a565b5b6000610cc884828501610c8f565b91505092915050565b6000606082019050610ce66000830186610c34565b610cf36020830185610c34565b610d0060408301846109c4565b94935050505056fea2646970667358221220428b54f9e88ce4b6c72469f0b11d6d9961ca42c736d16d24705b72aac670d01a64736f6c634300080e0033",
  "immutableReferences": {},
  "source": "// SPDX-License-Identifier: MIT\r\npragma solidity ^0.8.14;\r\n\r\nimport \"@openzeppelin/contracts/token/ERC20/ERC20.sol\";\r\n\r\ncontract StakingRewards {\r\n\r\n    ERC20 public stakingToken;\r\n\r\n    uint public rewardRate = 100;\r\n    \r\n    uint public lastUpdateTime;\r\n    uint public rewardPerTokenStored;\r\n\r\n    mapping(address => uint) public userRewardPerTokenPaid;\r\n    mapping(address => uint) public rewards;\r\n\r\n    uint private _totalSupply;\r\n    mapping(address => uint) private _balances;\r\n\r\n    constructor(address _stakingToken) {\r\n        stakingToken = ERC20(_stakingToken);\r\n    }\r\n\r\n    function rewardPerToken() public view returns (uint) {\r\n        if (_totalSupply == 0) {\r\n            return rewardPerTokenStored;\r\n        }\r\n        return\r\n            rewardPerTokenStored +\r\n            (((block.timestamp - lastUpdateTime) * rewardRate * 1e18) / _totalSupply);\r\n    }\r\n\r\n    function earned(address account) public view returns (uint) {\r\n        return\r\n            ((_balances[account] *\r\n                (rewardPerToken() - userRewardPerTokenPaid[account])) / 1e18) +\r\n            rewards[account];\r\n    }\r\n\r\n    modifier updateReward(address account) {\r\n        rewardPerTokenStored = rewardPerToken();\r\n        lastUpdateTime = block.timestamp;\r\n\r\n        rewards[account] = earned(account);\r\n        userRewardPerTokenPaid[account] = rewardPerTokenStored;\r\n        _;\r\n    }\r\n\r\n    function stake(uint _amount) external updateReward(msg.sender) {\r\n        _totalSupply += _amount;\r\n        _balances[msg.sender] += _amount;\r\n        stakingToken.transferFrom(msg.sender, address(this), _amount);\r\n    }\r\n\r\n    function withdraw(uint _amount) external updateReward(msg.sender) {\r\n        _totalSupply -= _amount;\r\n        _balances[msg.sender] -= _amount;\r\n        stakingToken.transfer(msg.sender, _amount);\r\n    }\r\n\r\n    function getReward() external updateReward(msg.sender) {\r\n        uint reward = rewards[msg.sender];\r\n        rewards[msg.sender] = 0;\r\n        stakingToken.transfer(msg.sender, reward);\r\n    }\r\n}",
  "sourcePath": "C:\\Users\\itrmi\\OneDrive\\Documentos\\JairoAlonso\\truffle-l\\first-solidity-project\\contracts\\Staking.sol",
  "compiler": {
    "name": "solc",
    "version": "0.8.14+commit.80d49f37.Emscripten.clang"
  },
  "schemaVersion": "3.4.7",
  "updatedAt": "2022-06-22T15:43:19.136Z",
  "devdoc": {
    "kind": "dev",
    "methods": {},
    "version": 1
  },
  "userdoc": {
    "kind": "user",
    "methods": {},
    "version": 1
  }
}